{
  "address": "0xeC4921a85B4aD057f3C99CbaA2F0a1653DA25901",
  "abi": [
    {
      "inputs": [
        {
          "internalType": "address",
          "name": "pool",
          "type": "address"
        },
        {
          "internalType": "address",
          "name": "_wastr",
          "type": "address"
        }
      ],
      "stateMutability": "nonpayable",
      "type": "constructor"
    },
    {
      "inputs": [
        {
          "internalType": "address",
          "name": "asset",
          "type": "address"
        }
      ],
      "name": "close",
      "outputs": [],
      "stateMutability": "nonpayable",
      "type": "function"
    },
    {
      "inputs": [
        {
          "internalType": "address",
          "name": "account",
          "type": "address"
        }
      ],
      "name": "getAvailableBorrows",
      "outputs": [
        {
          "internalType": "uint256",
          "name": "totalCollateral",
          "type": "uint256"
        },
        {
          "internalType": "uint256",
          "name": "availableBorrows",
          "type": "uint256"
        },
        {
          "internalType": "uint256",
          "name": "priceASTR",
          "type": "uint256"
        },
        {
          "internalType": "uint256",
          "name": "available",
          "type": "uint256"
        },
        {
          "internalType": "uint256",
          "name": "_ltv",
          "type": "uint256"
        },
        {
          "internalType": "uint256",
          "name": "hf",
          "type": "uint256"
        }
      ],
      "stateMutability": "view",
      "type": "function"
    },
    {
      "inputs": [
        {
          "internalType": "address",
          "name": "asset",
          "type": "address"
        }
      ],
      "name": "getConfiguration",
      "outputs": [
        {
          "internalType": "uint256",
          "name": "data",
          "type": "uint256"
        }
      ],
      "stateMutability": "view",
      "type": "function"
    },
    {
      "inputs": [
        {
          "internalType": "address",
          "name": "asset",
          "type": "address"
        }
      ],
      "name": "getLToken",
      "outputs": [
        {
          "internalType": "address",
          "name": "",
          "type": "address"
        }
      ],
      "stateMutability": "view",
      "type": "function"
    },
    {
      "inputs": [
        {
          "internalType": "address",
          "name": "asset",
          "type": "address"
        }
      ],
      "name": "getVDToken",
      "outputs": [
        {
          "internalType": "address",
          "name": "",
          "type": "address"
        }
      ],
      "stateMutability": "view",
      "type": "function"
    },
    {
      "inputs": [],
      "name": "lendingPool",
      "outputs": [
        {
          "internalType": "address",
          "name": "",
          "type": "address"
        }
      ],
      "stateMutability": "view",
      "type": "function"
    },
    {
      "inputs": [
        {
          "internalType": "address",
          "name": "asset",
          "type": "address"
        },
        {
          "internalType": "uint256",
          "name": "amount",
          "type": "uint256"
        },
        {
          "internalType": "uint256",
          "name": "interestRateMode",
          "type": "uint256"
        },
        {
          "internalType": "uint256",
          "name": "borrowRatio",
          "type": "uint256"
        },
        {
          "internalType": "uint256",
          "name": "loopCount",
          "type": "uint256"
        }
      ],
      "name": "loop",
      "outputs": [],
      "stateMutability": "nonpayable",
      "type": "function"
    },
    {
      "inputs": [
        {
          "internalType": "uint256",
          "name": "interestRateMode",
          "type": "uint256"
        },
        {
          "internalType": "uint256",
          "name": "borrowRatio",
          "type": "uint256"
        },
        {
          "internalType": "uint256",
          "name": "loopCount",
          "type": "uint256"
        }
      ],
      "name": "loopASTR",
      "outputs": [],
      "stateMutability": "payable",
      "type": "function"
    },
    {
      "inputs": [
        {
          "internalType": "address",
          "name": "asset",
          "type": "address"
        }
      ],
      "name": "ltv",
      "outputs": [
        {
          "internalType": "uint256",
          "name": "",
          "type": "uint256"
        }
      ],
      "stateMutability": "view",
      "type": "function"
    },
    {
      "inputs": [
        {
          "internalType": "address",
          "name": "asset",
          "type": "address"
        },
        {
          "internalType": "address",
          "name": "ltoken",
          "type": "address"
        },
        {
          "internalType": "uint256",
          "name": "amount",
          "type": "uint256"
        },
        {
          "internalType": "uint256",
          "name": "interestRateMode",
          "type": "uint256"
        },
        {
          "internalType": "uint256",
          "name": "loopCount",
          "type": "uint256"
        }
      ],
      "name": "reverseLoop",
      "outputs": [],
      "stateMutability": "nonpayable",
      "type": "function"
    },
    {
      "inputs": [
        {
          "internalType": "address",
          "name": "lwastr",
          "type": "address"
        },
        {
          "internalType": "uint256",
          "name": "interestRateMode",
          "type": "uint256"
        },
        {
          "internalType": "uint256",
          "name": "loopCount",
          "type": "uint256"
        }
      ],
      "name": "reverseLoopASTR",
      "outputs": [],
      "stateMutability": "payable",
      "type": "function"
    },
    {
      "inputs": [],
      "name": "wastr",
      "outputs": [
        {
          "internalType": "contract IWASTR",
          "name": "",
          "type": "address"
        }
      ],
      "stateMutability": "view",
      "type": "function"
    },
    {
      "inputs": [
        {
          "internalType": "address",
          "name": "account",
          "type": "address"
        }
      ],
      "name": "withdrawable",
      "outputs": [
        {
          "internalType": "uint256",
          "name": "totalCollateral",
          "type": "uint256"
        },
        {
          "internalType": "uint256",
          "name": "totalDebt",
          "type": "uint256"
        },
        {
          "internalType": "uint256",
          "name": "currentLiquidationThreshold",
          "type": "uint256"
        },
        {
          "internalType": "uint256",
          "name": "hf",
          "type": "uint256"
        },
        {
          "internalType": "uint256",
          "name": "surplusedHF",
          "type": "uint256"
        },
        {
          "internalType": "uint256",
          "name": "limitCollateral",
          "type": "uint256"
        },
        {
          "internalType": "uint256",
          "name": "withdrawableCollateral",
          "type": "uint256"
        }
      ],
      "stateMutability": "view",
      "type": "function"
    }
  ],
  "transactionHash": "0x892103f0e49cbc5d90bed2f0ac710b2d0c5436ef491b9dd6cf3b84cd292658f4",
  "args": [
    "0x90384334333f3356eFDD5b20016350843b90f182",
    "0xAeaaf0e2c81Af264101B9129C00F4440cCF0F720"
  ],
  "numDeployments": 21,
  "solcInputHash": "d2e31d27dd69bb62ad8804f217c3d14e",
  "bytecode": "0x60c06040523480156200001157600080fd5b506040516200232938038062002329833981016040819052620000349162000069565b6001600160a01b039182166080521660a052620000a1565b80516001600160a01b03811681146200006457600080fd5b919050565b600080604083850312156200007d57600080fd5b62000088836200004c565b915062000098602084016200004c565b90509250929050565b60805160a051612183620001a66000396000818160b9015281816102f4015281816103930152818161067201528181610711015281816107dd015281816108a201528181610a8101528181611834015281816118cb0152818161196a01526119e10152600081816101f30152818161032101528181610645015281816107b001528181610875015281816109ba01528181610b1b01528181610bcd01528181610ca101528181610f8e015281816110b90152818161115e0152818161137901528181611410015281816114d2015281816115cd0152818161166101528181611703015281816118f801528181611a3c01528181611b090152611b9601526121836000f3fe6080604052600436106100a25760003560e01c80630ab2a9a2146100a75780630dc53d5b146100f1578063413994f3146101065780635b761483146101535780637473eea61461017357806376fbb353146101a15780639f5747fa146101c1578063a59a9973146101e1578063b5f2936014610215578063c44b11f714610235578063c74073a114610255578063ce513b6f14610275578063f740c174146102ca575b600080fd5b3480156100b357600080fd5b506100db7f000000000000000000000000000000000000000000000000000000000000000081565b6040516100e89190611c00565b60405180910390f35b6101046100ff366004611c2c565b6102dd565b005b34801561011257600080fd5b50610126610121366004611c61565b6109af565b604080519687526020870195909552938501929092526060840152608083015260a082015260c0016100e8565b34801561015f57600080fd5b506100db61016e366004611c61565b610b01565b34801561017f57600080fd5b5061019361018e366004611c61565b610b9c565b6040519081526020016100e8565b3480156101ad57600080fd5b506100db6101bc366004611c61565b610bb3565b3480156101cd57600080fd5b506101046101dc366004611c85565b610c4f565b3480156101ed57600080fd5b506100db7f000000000000000000000000000000000000000000000000000000000000000081565b34801561022157600080fd5b50610104610230366004611cd6565b61127a565b34801561024157600080fd5b50610193610250366004611c61565b6113f6565b34801561026157600080fd5b50610104610270366004611c61565b61148d565b34801561028157600080fd5b50610295610290366004611c61565b6116f6565b604080519788526020880196909652948601939093526060850191909152608084015260a083015260c082015260e0016100e8565b6101046102d8366004611d1a565b61182d565b60405163095ea7b360e01b81526001600160a01b037f0000000000000000000000000000000000000000000000000000000000000000169063095ea7b39061034d907f00000000000000000000000000000000000000000000000000000000000000009060001990600401611d46565b6020604051808303816000875af115801561036c573d6000803e3d6000fd5b505050506040513d601f19601f820116820180604052508101906103909190611d5f565b507f00000000000000000000000000000000000000000000000000000000000000006001600160a01b031663d0e30db0346040518263ffffffff1660e01b81526004016000604051808303818588803b1580156103ec57600080fd5b505af1158015610400573d6000803e3d6000fd5b505050505060028110158015610417575060288111155b61043c5760405162461bcd60e51b815260040161043390611d81565b60405180910390fd5b60006104488234611dc9565b905080846001600160a01b03166370a08231336040518263ffffffff1660e01b81526004016104779190611c00565b6020604051808303816000875af1158015610496573d6000803e3d6000fd5b505050506040513d601f19601f820116820180604052508101906104ba9190611de8565b1115610539576040516323b872dd60e01b81526001600160a01b038516906323b872dd906104f090339030908690600401611e01565b6020604051808303816000875af115801561050f573d6000803e3d6000fd5b505050506040513d601f19601f820116820180604052508101906105339190611d5f565b50610620565b6040516370a0823160e01b81526001600160a01b038516906370a0823190610565903390600401611c00565b6020604051808303816000875af1158015610584573d6000803e3d6000fd5b505050506040513d601f19601f820116820180604052508101906105a89190611de8565b6040516323b872dd60e01b81529091506001600160a01b038516906323b872dd906105db90339030908690600401611e01565b6020604051808303816000875af11580156105fa573d6000803e3d6000fd5b505050506040513d601f19601f8201168201806040525081019061061e9190611d5f565b505b60008060005b8481101561092d5760405163573ade8160e01b81526001600160a01b037f0000000000000000000000000000000000000000000000000000000000000000169063573ade81906106a0907f00000000000000000000000000000000000000000000000000000000000000009034908b903390600401611e25565b6020604051808303816000875af11580156106bf573d6000803e3d6000fd5b505050506040513d601f19601f820116820180604052508101906106e39190611de8565b925034831015610791576106f78334611e50565b60405163a9059cbb60e01b81529092506001600160a01b037f0000000000000000000000000000000000000000000000000000000000000000169063a9059cbb906107489033908690600401611d46565b6020604051808303816000875af1158015610767573d6000803e3d6000fd5b505050506040513d601f19601f8201168201806040525081019061078b9190611d5f565b5061092d565b3484111561085e57604051631a4ca37b60e21b81526001600160a01b037f000000000000000000000000000000000000000000000000000000000000000016906369328dec90610809907f00000000000000000000000000000000000000000000000000000000000000009034903090600401611e67565b6020604051808303816000875af1158015610828573d6000803e3d6000fd5b505050506040513d601f19601f8201168201806040525081019061084c9190611de8565b506108573485611e50565b935061091b565b604051631a4ca37b60e21b81526001600160a01b037f000000000000000000000000000000000000000000000000000000000000000016906369328dec906108ce907f00000000000000000000000000000000000000000000000000000000000000009088903090600401611e67565b6020604051808303816000875af11580156108ed573d6000803e3d6000fd5b505050506040513d601f19601f820116820180604052508101906109119190611de8565b506000935061092d565b8061092581611e8a565b915050610626565b5082156109a75760405163a9059cbb60e01b81526001600160a01b0387169063a9059cbb906109629033908790600401611d46565b6020604051808303816000875af1158015610981573d6000803e3d6000fd5b505050506040513d601f19601f820116820180604052508101906109a59190611d5f565b505b505050505050565b6000806000806000807f00000000000000000000000000000000000000000000000000000000000000006001600160a01b031663bf92857c886040518263ffffffff1660e01b8152600401610a049190611c00565b60c060405180830381865afa158015610a21573d6000803e3d6000fd5b505050506040513d601f19601f82011682018060405250810190610a459190611ea5565b60405163b3596f0760e01b8152959b50929950955090935073bb5893e0f744b3d6305d49b1da6bc04fe922ac159263b3596f079250610aa991507f000000000000000000000000000000000000000000000000000000000000000090600401611c00565b602060405180830381865afa158015610ac6573d6000803e3d6000fd5b505050506040513d601f19601f82011682018060405250810190610aea9190611de8565b9350610af68486611dc9565b925091939550919395565b6040516335ea6a7560e01b81526000906001600160a01b037f000000000000000000000000000000000000000000000000000000000000000016906335ea6a7590610b50908590600401611c00565b61018060405180830381865afa158015610b6e573d6000803e3d6000fd5b505050506040513d601f19601f82011682018060405250810190610b929190611fc2565b60e0015192915050565b600080610ba8836113f6565b61ffff169392505050565b6040516335ea6a7560e01b81526000906001600160a01b037f000000000000000000000000000000000000000000000000000000000000000016906335ea6a7590610c02908590600401611c00565b61018060405180830381865afa158015610c20573d6000803e3d6000fd5b505050506040513d601f19601f82011682018060405250810190610c449190611fc2565b610120015192915050565b60028110158015610c61575060288111155b610c7d5760405162461bcd60e51b815260040161043390611d81565b60405163095ea7b360e01b81526001600160a01b0386169063095ea7b390610ccd907f00000000000000000000000000000000000000000000000000000000000000009060001990600401611d46565b6020604051808303816000875af1158015610cec573d6000803e3d6000fd5b505050506040513d601f19601f82011682018060405250810190610d109190611d5f565b506040516323b872dd60e01b81526001600160a01b038616906323b872dd90610d4190339030908890600401611e01565b6020604051808303816000875af1158015610d60573d6000803e3d6000fd5b505050506040513d601f19601f82011682018060405250810190610d849190611d5f565b506000610d918285611dc9565b905080856001600160a01b03166370a08231336040518263ffffffff1660e01b8152600401610dc09190611c00565b6020604051808303816000875af1158015610ddf573d6000803e3d6000fd5b505050506040513d601f19601f82011682018060405250810190610e039190611de8565b1115610e82576040516323b872dd60e01b81526001600160a01b038616906323b872dd90610e3990339030908690600401611e01565b6020604051808303816000875af1158015610e58573d6000803e3d6000fd5b505050506040513d601f19601f82011682018060405250810190610e7c9190611d5f565b50610f69565b6040516370a0823160e01b81526001600160a01b038616906370a0823190610eae903390600401611c00565b6020604051808303816000875af1158015610ecd573d6000803e3d6000fd5b505050506040513d601f19601f82011682018060405250810190610ef19190611de8565b6040516323b872dd60e01b81529091506001600160a01b038616906323b872dd90610f2490339030908690600401611e01565b6020604051808303816000875af1158015610f43573d6000803e3d6000fd5b505050506040513d601f19601f82011682018060405250810190610f679190611d5f565b505b60008060005b848110156111f65760405163573ade8160e01b81526001600160a01b037f0000000000000000000000000000000000000000000000000000000000000000169063573ade8190610fc9908c908b908b903390600401611e25565b6020604051808303816000875af1158015610fe8573d6000803e3d6000fd5b505050506040513d601f19601f8201168201806040525081019061100c9190611de8565b92508683101561109a576110208388611e50565b60405163a9059cbb60e01b81529092506001600160a01b038a169063a9059cbb906110519033908690600401611d46565b6020604051808303816000875af1158015611070573d6000803e3d6000fd5b505050506040513d601f19601f820116820180604052508101906110949190611d5f565b506111f6565b8684111561114757604051631a4ca37b60e21b81526001600160a01b037f000000000000000000000000000000000000000000000000000000000000000016906369328dec906110f2908c908b903090600401611e67565b6020604051808303816000875af1158015611111573d6000803e3d6000fd5b505050506040513d601f19601f820116820180604052508101906111359190611de8565b506111408785611e50565b93506111e4565b604051631a4ca37b60e21b81526001600160a01b037f000000000000000000000000000000000000000000000000000000000000000016906369328dec90611197908c9088903090600401611e67565b6020604051808303816000875af11580156111b6573d6000803e3d6000fd5b505050506040513d601f19601f820116820180604052508101906111da9190611de8565b50600093506111f6565b806111ee81611e8a565b915050610f6f565b5082156112705760405163a9059cbb60e01b81526001600160a01b0388169063a9059cbb9061122b9033908790600401611d46565b6020604051808303816000875af115801561124a573d6000803e3d6000fd5b505050506040513d601f19601f8201168201806040525081019061126e9190611d5f565b505b5050505050505050565b600061128586610b9c565b90506000831180156112975750808311155b6112b35760405162461bcd60e51b8152600401610433906120af565b600282101580156112c5575060288211155b6112e15760405162461bcd60e51b815260040161043390611d81565b6040516323b872dd60e01b81526001600160a01b038716906323b872dd9061131190339030908a90600401611e01565b6020604051808303816000875af1158015611330573d6000803e3d6000fd5b505050506040513d601f19601f820116820180604052508101906113549190611d5f565b5060405163095ea7b360e01b81526001600160a01b0387169063095ea7b3906113a5907f00000000000000000000000000000000000000000000000000000000000000009060001990600401611d46565b6020604051808303816000875af11580156113c4573d6000803e3d6000fd5b505050506040513d601f19601f820116820180604052508101906113e89190611d5f565b506109a78686868686611a0f565b60405163c44b11f760e01b81526000906001600160a01b037f0000000000000000000000000000000000000000000000000000000000000000169063c44b11f790611445908590600401611c00565b602060405180830381865afa158015611462573d6000803e3d6000fd5b505050506040513d601f19601f8201168201806040525081019061148691906120e2565b5192915050565b6000611498336116f6565b965050505050505060006114ab83610b01565b60405163095ea7b360e01b81529091506001600160a01b0382169063095ea7b3906114fe907f00000000000000000000000000000000000000000000000000000000000000009060001990600401611d46565b6020604051808303816000875af115801561151d573d6000803e3d6000fd5b505050506040513d601f19601f820116820180604052508101906115419190611d5f565b506040516323b872dd60e01b81526001600160a01b038216906323b872dd9061157290339030908790600401611e01565b6020604051808303816000875af1158015611591573d6000803e3d6000fd5b505050506040513d601f19601f820116820180604052508101906115b59190611d5f565b50604051631a4ca37b60e21b81526001600160a01b037f000000000000000000000000000000000000000000000000000000000000000016906369328dec9061160690869086903390600401611e67565b6020604051808303816000875af1158015611625573d6000803e3d6000fd5b505050506040513d601f19601f820116820180604052508101906116499190611de8565b5060405163573ade8160e01b81526001600160a01b037f0000000000000000000000000000000000000000000000000000000000000000169063573ade819061169d90869086906002903390600401611e25565b6020604051808303816000875af11580156116bc573d6000803e3d6000fd5b505050506040513d601f19601f820116820180604052508101906116e09190611de8565b506116ea336116f6565b50505050505050505050565b60008060008060008060007f00000000000000000000000000000000000000000000000000000000000000006001600160a01b031663bf92857c896040518263ffffffff1660e01b815260040161174d9190611c00565b60c060405180830381865afa15801561176a573d6000803e3d6000fd5b505050506040513d601f19601f8201168201806040525081019061178e9190611ea5565b949b5092995097509195506117af9150670de0b6b3a7640000905085611e50565b9250600083116117ee5760405162461bcd60e51b815260206004820152600a602482015269155b9a19585b1d1a195960b21b6044820152606401610433565b655af3107a4000856118008589611dc9565b61180a91906120fe565b61181491906120fe565b91506118208288611e50565b9050919395979092949650565b60006118587f0000000000000000000000000000000000000000000000000000000000000000610b9c565b905060008311801561186a5750808311155b6118865760405162461bcd60e51b8152600401610433906120af565b60028210158015611898575060288211155b6118b45760405162461bcd60e51b815260040161043390611d81565b60405163095ea7b360e01b81526001600160a01b037f0000000000000000000000000000000000000000000000000000000000000000169063095ea7b390611924907f00000000000000000000000000000000000000000000000000000000000000009060001990600401611d46565b6020604051808303816000875af1158015611943573d6000803e3d6000fd5b505050506040513d601f19601f820116820180604052508101906119679190611d5f565b507f00000000000000000000000000000000000000000000000000000000000000006001600160a01b031663d0e30db0346040518263ffffffff1660e01b81526004016000604051808303818588803b1580156119c357600080fd5b505af11580156119d7573d6000803e3d6000fd5b5050505050611a097f000000000000000000000000000000000000000000000000000000000000000034868686611a0f565b50505050565b8360005b611a1e600184611e50565b811015611b785760405163e8eda9df60e01b81526001600160a01b037f0000000000000000000000000000000000000000000000000000000000000000169063e8eda9df90611a78908a9086903390600a90600401612120565b600060405180830381600087803b158015611a9257600080fd5b505af1158015611aa6573d6000803e3d6000fd5b505050506127108483611ab99190611dc9565b611ac391906120fe565b915081611acf57611b78565b60405163a415bcad60e01b81526001600160a01b0388811660048301526024820184905260448201879052600a60648301523360848301527f0000000000000000000000000000000000000000000000000000000000000000169063a415bcad9060a401600060405180830381600087803b158015611b4d57600080fd5b505af1158015611b61573d6000803e3d6000fd5b505050508080611b7090611e8a565b915050611a13565b5080156109a75760405163e8eda9df60e01b81526001600160a01b037f0000000000000000000000000000000000000000000000000000000000000000169063e8eda9df90611bd290899085903390600090600401612120565b600060405180830381600087803b158015611bec57600080fd5b505af11580156116ea573d6000803e3d6000fd5b6001600160a01b0391909116815260200190565b6001600160a01b0381168114611c2957600080fd5b50565b600080600060608486031215611c4157600080fd5b8335611c4c81611c14565b95602085013595506040909401359392505050565b600060208284031215611c7357600080fd5b8135611c7e81611c14565b9392505050565b600080600080600060a08688031215611c9d57600080fd5b8535611ca881611c14565b94506020860135611cb881611c14565b94979496505050506040830135926060810135926080909101359150565b600080600080600060a08688031215611cee57600080fd5b8535611cf981611c14565b97602087013597506040870135966060810135965060800135945092505050565b600080600060608486031215611d2f57600080fd5b505081359360208301359350604090920135919050565b6001600160a01b03929092168252602082015260400190565b600060208284031215611d7157600080fd5b81518015158114611c7e57600080fd5b602080825260189082015277125b985c1c1c9bdc1c9a585d19481b1bdbdc0818dbdd5b9d60421b604082015260600190565b634e487b7160e01b600052601160045260246000fd5b6000816000190483118215151615611de357611de3611db3565b500290565b600060208284031215611dfa57600080fd5b5051919050565b6001600160a01b039384168152919092166020820152604081019190915260600190565b6001600160a01b03948516815260208101939093526040830191909152909116606082015260800190565b600082821015611e6257611e62611db3565b500390565b6001600160a01b0393841681526020810192909252909116604082015260600190565b6000600019821415611e9e57611e9e611db3565b5060010190565b60008060008060008060c08789031215611ebe57600080fd5b865195506020870151945060408701519350606087015192506080870151915060a087015190509295509295509295565b60405161018081016001600160401b0381118282101715611f2057634e487b7160e01b600052604160045260246000fd5b60405290565b600060208284031215611f3857600080fd5b604051602081016001600160401b0381118282101715611f6857634e487b7160e01b600052604160045260246000fd5b6040529151825250919050565b80516001600160801b0381168114611f8c57600080fd5b919050565b805164ffffffffff81168114611f8c57600080fd5b8051611f8c81611c14565b805160ff81168114611f8c57600080fd5b60006101808284031215611fd557600080fd5b611fdd611eef565b611fe78484611f26565b8152611ff560208401611f75565b602082015261200660408401611f75565b604082015261201760608401611f75565b606082015261202860808401611f75565b608082015261203960a08401611f75565b60a082015261204a60c08401611f91565b60c082015261205b60e08401611fa6565b60e082015261010061206e818501611fa6565b90820152610120612080848201611fa6565b90820152610140612092848201611fa6565b908201526101606120a4848201611fb1565b908201529392505050565b602080825260199082015278496e617070726f70726961746520626f72726f77207261746560381b604082015260600190565b6000602082840312156120f457600080fd5b611c7e8383611f26565b60008261211b57634e487b7160e01b600052601260045260246000fd5b500490565b6001600160a01b03948516815260208101939093529216604082015261ffff90911660608201526080019056fea264697066735822122019516e294ae100914d8ada24e4e52b18a299491118fe84fbc430f545631ea96464736f6c634300080a0033",
  "devdoc": {
    "kind": "dev",
    "methods": {
      "loop(address,uint256,uint256,uint256,uint256)": {
        "params": {
          "amount": "The total deposit amount",
          "asset": "The address of the target token",
          "borrowRatio": "the percentage of the usage of the borrowed amount                        e.g. 80% -> 8000",
          "interestRateMode": "The interest rate mode at which the user wants to borrow: 1 for Stable, 2 for Variable",
          "loopCount": "The looping count how many times to deposit"
        }
      },
      "loopASTR(uint256,uint256,uint256)": {
        "params": {
          "borrowRatio": "the percentage of the usage of the borrowed amount                        e.g. 80% -> 8000",
          "interestRateMode": "The interest rate mode at which the user wants to borrow: 1 for Stable, 2 for Variable",
          "loopCount": "The looping count how many times to deposit"
        }
      },
      "ltv(address)": {
        "params": {
          "asset": "address of the target token"
        },
        "returns": {
          "_0": "ltv percentage: e.g. 80% -> 8000"
        }
      },
      "reverseLoop(address,address,uint256,uint256,uint256)": {
        "params": {
          "amount": "The repay amount per process of the loop",
          "asset": "The address of the target token",
          "interestRateMode": "The interest rate mode at which the user wants to repay: 1 for Stable, 2 for Variabl",
          "loopCount": "The looping count how many times to deposit"
        }
      },
      "reverseLoopASTR(address,uint256,uint256)": {
        "params": {
          "interestRateMode": "The interest rate mode at which the user wants to repay: 1 for Stable, 2 for Variabl",
          "loopCount": "The looping count how many times to deposit"
        }
      }
    },
    "version": 1
  },
  "userdoc": {
    "kind": "user",
    "methods": {
      "loop(address,uint256,uint256,uint256,uint256)": {
        "notice": "Loop the depositing and borrowing"
      },
      "loopASTR(uint256,uint256,uint256)": {
        "notice": "Loop the depositing and borrowing on ASTR"
      },
      "ltv(address)": {
        "notice": "Get Loan to value of the asset."
      },
      "reverseLoop(address,address,uint256,uint256,uint256)": {
        "notice": "Loop the repaying and withdrawing"
      },
      "reverseLoopASTR(address,uint256,uint256)": {
        "notice": "Loop the repaying and withdrawing"
      }
    },
    "version": 1
  },
  "storageLayout": {
    "storage": [],
    "types": null
  }
}